:060000000A128A11EE2F26
:100E6200FC346034DA34F2346634B634BE34E034FE
:100E7200FE34F6347E088A007F0882000A128A1144
:100E82003B270A128A118000840A04087D0603198E
:100E92000034FF0A0319FE0A3F2F203084002E304F
:100EA200F0000408F1000A30F20070088400831395
:100EB2000008F300F00A7108840073088000F10A48
:100EC200F20B562F83160313860183120313860136
:100ED20083160313870183120313870183160313F7
:100EE2008801831203138801AC01AD01831203133D
:100EF2002C08203E84008313000887000814053064
:100F02002C062D04031D862F872F882F8814AA01F3
:100F1200AB01831203132A08203E840083130008C6
:100F220086000630F2001330F100AD30F000F00B15
:100F3200982FF10B982FF20B982F9F2F09308312C5
:100F420003132C062D04031DA72FA82FB22F09303F
:100F52002A062B04031DAE2FAF2FB22F08108810C4
:100F620008150130AA070318AB0A0030AB072B089B
:100F7200803AFF0080307F02031DC12F0A302A020F
:100F8200031CC42FC52F8A2F013083120313AC0711
:100F92000318AD0A0030AD072D08803AFF008030FB
:100FA2007F02031DD62F0A302C02031CD92FDA2F01
:100FB200772F3330F200BB30F100DF30F000F00B5E
:100FC200E02FF10BE02FF20BE02FE72F8312031338
:100FD2000811752F0A128A11002883133830FD0078
:100FE2000730FE003130FF002E3084000A128A11D1
:0E0FF2003F270A128A1183010A128A114E2F1C
:02400E00723FFF
:00000001FF
